{
  "_format": "hh-sol-artifact-1",
  "contractName": "NUM2",
  "sourceName": "contracts/NUM2.sol",
  "abi": [
    {
      "inputs": [],
      "name": "get",
      "outputs": [
        {
          "internalType": "uint256",
          "name": "",
          "type": "uint256"
        }
      ],
      "stateMutability": "view",
      "type": "function"
    },
    {
      "inputs": [],
      "name": "increment",
      "outputs": [
        {
          "internalType": "uint256",
          "name": "",
          "type": "uint256"
        }
      ],
      "stateMutability": "nonpayable",
      "type": "function"
    },
    {
      "inputs": [
        {
          "internalType": "uint256",
          "name": "_num",
          "type": "uint256"
        }
      ],
      "name": "update",
      "outputs": [],
      "stateMutability": "nonpayable",
      "type": "function"
    }
  ],
  "bytecode": "0x608060405234801561001057600080fd5b5061020d806100206000396000f3fe608060405234801561001057600080fd5b50600436106100415760003560e01c80636d4ce63c1461004657806382ab890a14610064578063d09de08a14610080575b600080fd5b61004e61009e565b60405161005b91906100e7565b60405180910390f35b61007e60048036038101906100799190610133565b6100a7565b005b6100886100b1565b60405161009591906100e7565b60405180910390f35b60008054905090565b8060008190555050565b60008060008154809291906100c59061018f565b91905055905090565b6000819050919050565b6100e1816100ce565b82525050565b60006020820190506100fc60008301846100d8565b92915050565b600080fd5b610110816100ce565b811461011b57600080fd5b50565b60008135905061012d81610107565b92915050565b60006020828403121561014957610148610102565b5b60006101578482850161011e565b91505092915050565b7f4e487b7100000000000000000000000000000000000000000000000000000000600052601160045260246000fd5b600061019a826100ce565b91507fffffffffffffffffffffffffffffffffffffffffffffffffffffffffffffffff82036101cc576101cb610160565b5b60018201905091905056fea2646970667358221220f39d1defd6ca5008c59e990c7d32b00ea9d6635c5f35d4b3ffd77a2bfb488e8364736f6c63430008120033",
  "linkReferences": {},
  "deployedLinkReferences": {}
}